{
  "abi": [
    {
      "inputs": [
        {
          "internalType": "uint256",
          "name": "number",
          "type": "uint256"
        }
      ],
      "name": "deal",
      "outputs": [],
      "stateMutability": "nonpayable",
      "type": "function"
    }
  ],
  "bytecode": {
    "object": "0x60806040526064600055600060015534801561001a57600080fd5b5060e9806100296000396000f3fe6080604052348015600f57600080fd5b506004361060285760003560e01c8063c959c42b14602d575b600080fd5b603c6038366004605f565b603e565b005b80600054604a9190608d565b600055600154605990829060a3565b60015550565b600060208284031215607057600080fd5b5035919050565b634e487b7160e01b600052601160045260246000fd5b81810381811115609d57609d6077565b92915050565b80820180821115609d57609d607756fea2646970667358221220d814ee37971b5bec653e28f1dc7f3f55717bbf7ccd25ccc065528e5a908a3c1664736f6c63430008110033",
    "linkReferences": {}
  },
  "methodIdentifiers": {
    "deal(uint256)": "c959c42b"
  },
  "id": 0
}